{
  "address": "0x4928DcC463f329BdDB7159aEDE6cdc7Fb72349A3",
  "abi": [
    {
      "inputs": [
        {
          "internalType": "contract IVault",
          "name": "vault",
          "type": "address"
        }
      ],
      "stateMutability": "nonpayable",
      "type": "constructor"
    },
    {
      "anonymous": false,
      "inputs": [
        {
          "indexed": true,
          "internalType": "address",
          "name": "pool",
          "type": "address"
        }
      ],
      "name": "PoolCreated",
      "type": "event"
    },
    {
      "inputs": [
        {
          "internalType": "string",
          "name": "name",
          "type": "string"
        },
        {
          "internalType": "string",
          "name": "symbol",
          "type": "string"
        },
        {
          "internalType": "contract IERC20[]",
          "name": "tokens",
          "type": "address[]"
        },
        {
          "internalType": "uint256",
          "name": "amplificationParameter",
          "type": "uint256"
        },
        {
          "internalType": "uint256",
          "name": "swapFeePercentage",
          "type": "uint256"
        },
        {
          "internalType": "address",
          "name": "owner",
          "type": "address"
        }
      ],
      "name": "create",
      "outputs": [
        {
          "internalType": "address",
          "name": "",
          "type": "address"
        }
      ],
      "stateMutability": "nonpayable",
      "type": "function"
    },
    {
      "inputs": [],
      "name": "getPauseConfiguration",
      "outputs": [
        {
          "internalType": "uint256",
          "name": "pauseWindowDuration",
          "type": "uint256"
        },
        {
          "internalType": "uint256",
          "name": "bufferPeriodDuration",
          "type": "uint256"
        }
      ],
      "stateMutability": "view",
      "type": "function"
    },
    {
      "inputs": [],
      "name": "getVault",
      "outputs": [
        {
          "internalType": "contract IVault",
          "name": "",
          "type": "address"
        }
      ],
      "stateMutability": "view",
      "type": "function"
    },
    {
      "inputs": [
        {
          "internalType": "address",
          "name": "pool",
          "type": "address"
        }
      ],
      "name": "isPoolFromFactory",
      "outputs": [
        {
          "internalType": "bool",
          "name": "",
          "type": "bool"
        }
      ],
      "stateMutability": "view",
      "type": "function"
    }
  ],
  "transactionHash": "0xfdde61c911a65ce22de8936716c468bfbd31c952c7d6e9f1f9bf551a2a59b74f",
  "args": [
    "0x99DFAd1c64edBab922C0b9a490212a1fF53a04b6"
  ],
  "solcInputHash": "3aac5ae0c93821cb010975cc63c38e1e",
  "bytecode": "0x60c060405234801561001057600080fd5b506040516157d43803806157d483398101604081905261002f9161004d565b60601b6001600160601b0319166080526276a700420160a05261007b565b60006020828403121561005e578081fd5b81516001600160a01b0381168114610074578182fd5b9392505050565b60805160601c60a05161572f6100a56000398060d652806101005250806101dd525061572f6000f3fe60806040523480156200001157600080fd5b5060043610620000525760003560e01c80632da47c4014620000575780636634b753146200007a5780637932c7f314620000a05780638d928af814620000c6575b600080fd5b62000061620000d0565b604051620000719291906200055c565b60405180910390f35b620000916200008b366004620002da565b6200013c565b60405162000071919062000494565b620000b7620000b136600462000300565b6200015a565b60405162000071919062000480565b620000b7620001db565b600080427f00000000000000000000000000000000000000000000000000000000000000008110156200012e57807f000000000000000000000000000000000000000000000000000000000000000003925062278d00915062000137565b60009250600091505b509091565b6001600160a01b031660009081526020819052604090205460ff1690565b600080600062000169620000d0565b91509150600062000179620001db565b8a8a8a8a8a88888c6040516200018f906200024b565b620001a3999897969594939291906200049f565b604051809103906000f080158015620001c0573d6000803e3d6000fd5b509050620001ce81620001ff565b9998505050505050505050565b7f000000000000000000000000000000000000000000000000000000000000000090565b6001600160a01b038116600081815260208190526040808220805460ff19166001179055517f83a48fbcfc991335314e74d0496aab6a1987e992ddc85dddbcc4d6dd6ef2e9fc9190a250565b61514280620005b883390190565b803562000266816200059e565b92915050565b600082601f8301126200027d578081fd5b813567ffffffffffffffff81111562000294578182fd5b620002a9601f8201601f19166020016200056a565b9150808252836020828501011115620002c157600080fd5b8060208401602084013760009082016020015292915050565b600060208284031215620002ec578081fd5b8135620002f9816200059e565b9392505050565b60008060008060008060c0878903121562000319578182fd5b863567ffffffffffffffff8082111562000331578384fd5b6200033f8a838b016200026c565b975060209150818901358181111562000356578485fd5b620003648b828c016200026c565b97505060408901358181111562000379578485fd5b8901601f81018b136200038a578485fd5b80358281111562000399578586fd5b8381029250620003ab8484016200056a565b8181528481019083860185850187018f1015620003c6578889fd5b8895505b83861015620003f457620003df8f8262000259565b835260019590950194918601918601620003ca565b50985050505060608901359450505060808701359150620004198860a0890162000259565b90509295509295509295565b6001600160a01b03169052565b60008151808452815b8181101562000459576020818501810151868301820152016200043b565b818111156200046b5782602083870101525b50601f01601f19169290920160200192915050565b6001600160a01b0391909116815260200190565b901515815260200190565b6001600160a01b038a168152610120602080830182905260009190620004c88483018d62000432565b91508382036040850152620004de828c62000432565b84810360608601528a51808252828c01935090820190845b818110156200051e576200050b855162000592565b83529383019391830191600101620004f6565b50508093505050508660808301528560a08301528460c08301528360e08301526200054e61010083018462000425565b9a9950505050505050505050565b918252602082015260400190565b60405181810167ffffffffffffffff811182821017156200058a57600080fd5b604052919050565b6001600160a01b031690565b6001600160a01b0381168114620005b457600080fd5b5056fe6103206040527f6e71edae12b1b97f4d1f60370fef10105fa2faae0126114a169c64845d6126c9610120523480156200003757600080fd5b5060405162005142380380620051428339810160408190526200005a9162000ae2565b8886516002146200006d57600062000070565b60025b8989898a516001600160401b03811180156200008b57600080fd5b50604051908082528060200260200182016040528015620000b6578160200160208202803683370190505b506040805180820190915260018152603160f81b602080830191909152336080526001600160601b031960608a901b1660a05285518c928c928c928c92859285928c928c92849283929183918691620001159160039185019062000900565b5080516200012b90600490602084019062000900565b50506005805460ff1916601217905550815160209283012060c052805191012060e05250507f8b73c3c69bb8fe3d512ecc4cf759cc79239f7b179b0ffacaa9a75d522b39400f61010052506200018a6276a70083111561019462000551565b6200019e62278d0082111561019562000551565b4290910161014081905201610160528551620001c0906002111560c862000551565b620001da620001ce62000566565b8751111560c962000551565b620001f0866200056b60201b62000f681760201c565b620001fb8462000577565b6040516309b2760f60e01b81526000906001600160a01b038c16906309b2760f906200022c908d9060040162000c7e565b602060405180830381600087803b1580156200024757600080fd5b505af11580156200025c573d6000803e3d6000fd5b505050506040513d601f19601f8201168201806040525081019062000282919062000ac9565b604051633354e3e960e11b81529091506001600160a01b038c16906366a9c7d290620002b79084908b908b9060040162000be2565b600060405180830381600087803b158015620002d257600080fd5b505af1158015620002e7573d6000803e3d6000fd5b5050505060609a909a1b6001600160601b031916610180525050506101a0969096525062000324945050506001881015915061012c905062000551565b6200033761138886111561012d62000551565b85516101c0819052865187906000906200034d57fe5b60200260200101516001600160a01b03166101e0816001600160a01b031660601b81525050866001815181106200038057fe5b60200260200101516001600160a01b0316610200816001600160a01b031660601b8152505060028111620003b6576000620003cd565b86600281518110620003c457fe5b60200260200101515b60601b6001600160601b0319166102205260038111620003ef57600062000406565b86600381518110620003fd57fe5b60200260200101515b60601b6001600160601b0319166102405260048111620004285760006200043f565b866004815181106200043657fe5b60200260200101515b6001600160a01b0316610260816001600160a01b031660601b8152505062000482876000815181106200046e57fe5b60200260200101516200060360201b60201c565b6102805286516200049b90889060019081106200046e57fe5b6102a05260028111620004b0576000620004c2565b620004c2876002815181106200046e57fe5b6102c05260038111620004d7576000620004e9565b620004e9876003815181106200046e57fe5b6102e05260048111620004fe57600062000510565b62000510876004815181106200046e57fe5b6103008181525050600062000533876103e8620006af60201b62000f721760201c565b90506200054081620006e0565b505050505050505050505062000d00565b81620005625762000562816200071f565b5050565b600590565b80620005628162000772565b6200058c64e8d4a5100082101560cb62000551565b620005a467016345785d8a000082111560ca62000551565b620005c38160c0600854620007ff60201b62000f96179092919060201c565b6008556040517fa9ba3ffe0b6c366b81232caab38605a0699ad5398d6cce76f91ee809e322dafc90620005f890839062000c93565b60405180910390a150565b600080826001600160a01b031663313ce5676040518163ffffffff1660e01b815260040160206040518083038186803b1580156200064057600080fd5b505afa15801562000655573d6000803e3d6000fd5b505050506040513d601f19601f820116820180604052508101906200067b919062000bbf565b60ff16905060006200069a6012836200081460201b62000fab1760201c565b600a0a670de0b6b3a764000002949350505050565b6000828202620006d7841580620006cf575083858381620006cc57fe5b04145b600362000551565b90505b92915050565b620006ee818042806200082c565b7fa0d01593e47e69d07e0ccd87bece09411e07dd1ed40ca8f2e7af2976542a023381604051620005f8919062000c93565b62461bcd60e51b6000908152602060045260076024526642414c23000030600a808404818106603090810160081b95839006959095019082900491820690940160101b939093010160c81b604452606490fd5b6002815110156200078357620007fc565b6000816000815181106200079357fe5b602002602001015190506000600190505b8251811015620007f9576000838281518110620007bd57fe5b60200260200101519050620007ee816001600160a01b0316846001600160a01b03161060656200055160201b60201c565b9150600101620007a4565b50505b50565b6001600160401b03811b1992909216911b1790565b60006200082683831115600162000551565b50900390565b6200084d816001600160401b031660c0620008fc60201b62000fc11760201c565b6200086e836001600160401b03166080620008fc60201b62000fc11760201c565b6200088f856001600160401b03166040620008fc60201b62000fc11760201c565b620008b0876001600160401b03166000620008fc60201b62000fc11760201c565b1717176009556040517f1835882ee7a34ac194f717a35e09bb1d24c82a3b9d854ab6c9749525b714cdf290620008ee90869086908690869062000c9c565b60405180910390a150505050565b1b90565b828054600181600116156101000203166002900490600052602060002090601f016020900481019282601f106200094357805160ff191683800117855562000973565b8280016001018555821562000973579182015b828111156200097357825182559160200191906001019062000956565b506200098192915062000985565b5090565b5b8082111562000981576000815560010162000986565b8051620006da8162000cea565b600082601f830112620009ba578081fd5b81516001600160401b03811115620009d0578182fd5b6020808202620009e282820162000cb7565b83815293508184018583018287018401881015620009ff57600080fd5b600092505b8483101562000a2f57805162000a1a8162000cea565b82526001929092019190830190830162000a04565b505050505092915050565b600082601f83011262000a4b578081fd5b81516001600160401b0381111562000a61578182fd5b602062000a77601f8301601f1916820162000cb7565b9250818352848183860101111562000a8e57600080fd5b60005b8281101562000aae57848101820151848201830152810162000a91565b8281111562000ac05760008284860101525b50505092915050565b60006020828403121562000adb578081fd5b5051919050565b60008060008060008060008060006101208a8c03121562000b01578485fd5b62000b0d8b8b6200099c565b60208b01519099506001600160401b038082111562000b2a578687fd5b62000b388d838e0162000a3a565b995060408c015191508082111562000b4e578687fd5b62000b5c8d838e0162000a3a565b985060608c015191508082111562000b72578687fd5b5062000b818c828d01620009a9565b96505060808a0151945060a08a0151935060c08a0151925060e08a0151915062000bb08b6101008c016200099c565b90509295985092959850929598565b60006020828403121562000bd1578081fd5b815160ff81168114620006d7578182fd5b60006060820185835260206060818501528186518084526080860191508288019350845b8181101562000c2e5762000c1b855162000cde565b8352938301939183019160010162000c06565b505084810360408601528551808252908201925081860190845b8181101562000c705762000c5d835162000cde565b8552938301939183019160010162000c48565b509298975050505050505050565b602081016003831062000c8d57fe5b91905290565b90815260200190565b93845260208401929092526040830152606082015260800190565b6040518181016001600160401b038111828210171562000cd657600080fd5b604052919050565b6001600160a01b031690565b6001600160a01b0381168114620007fc57600080fd5b60805160a05160601c60c05160e051610100516101205161014051610160516101805160601c6101a0516101c0516101e05160601c6102005160601c6102205160601c6102405160601c6102605160601c610280516102a0516102c0516102e0516103005161434d62000df56000398061219952508061217552508061215152508061212d525080612109525080611dfb525080611db9525080611d775250806127a5525080612773525080610fc75250806107a4525080610adb52508061136e52508061134a525080610cd95250806115c35250806116055250806115e4525080610ab7525080610a41525061434d6000f3fe608060405234801561001057600080fd5b506004361061021c5760003560e01c80636daccffa116101255780639b02cdde116100ad578063aaabadc51161007c578063aaabadc514610475578063d505accf1461047d578063d5c096c414610490578063dd62ed3e146104a3578063eb0f24d6146104b65761021c565b80639b02cdde146104265780639d2c110c1461043c578063a457c2d71461044f578063a9059cbb146104625761021c565b8063851c1bb3116100f4578063851c1bb3146103db57806387ec6817146103ee578063893d20e8146104015780638d928af81461041657806395d89b411461041e5761021c565b80636daccffa1461037d57806370a082311461039457806374f3b009146103a75780637ecebe00146103c85761021c565b8063313ce567116101a85780633950935111610177578063395093511461032657806350dd6ed91461033957806355c676281461034c5780636028bfd414610354578063679aefce146103755761021c565b8063313ce567146102ee5780633644e5151461030357806338e9922e1461030b57806338fff2d01461031e5761021c565b806318160ddd116101ef57806318160ddd146102945780631c0de0511461029c5780631dd746ea146102b357806323b872dd146102c85780632f1a0bc9146102db5761021c565b806301ec954a1461022157806306fdde031461024a578063095ea7b31461025f57806316c38b3c1461027f575b600080fd5b61023461022f366004613ee8565b6104be565b6040516102419190614153565b60405180910390f35b61025261051d565b6040516102419190614229565b61027261026d366004613b7e565b6105b4565b6040516102419190614130565b61029261028d366004613c74565b6105cb565b005b6102346105df565b6102a46105e5565b6040516102419392919061413b565b6102bb61060e565b60405161024191906140f8565b6102726102d6366004613ac9565b61061d565b6102926102e9366004613fbb565b610693565b6102f6610776565b6040516102419190614294565b61023461077f565b610292610319366004613fa3565b610789565b6102346107a2565b610272610334366004613b7e565b6107c6565b610292610347366004613d92565b610801565b61023461081f565b610367610362366004613cac565b610830565b60405161024192919061423c565b610234610867565b610385610945565b60405161024193929190614255565b6102346103a2366004613a75565b610960565b6103ba6103b5366004613cac565b61097f565b60405161024192919061410b565b6102346103d6366004613a75565b610a22565b6102346103e9366004613d4e565b610a3d565b6103676103fc366004613cac565b610a8f565b610409610ab5565b60405161024191906140e4565b610409610ad9565b610252610afd565b61042e610b5e565b60405161024192919061426b565b61023461044a366004613f58565b610b68565b61027261045d366004613b7e565b610c4f565b610272610470366004613b7e565b610c8d565b610409610c9a565b61029261048b366004613b09565b610ca4565b6103ba61049e366004613cac565b610ded565b6102346104b1366004613a91565b610f11565b610292610f3c565b60006104d283836104cd610fc5565b610fe9565b60606104dc611006565b90506000865160018111156104ed57fe5b14610504576104ff868686868561113c565b610511565b61051186868686856111b3565b9150505b949350505050565b60038054604080516020601f60026000196101006001881615020190951694909404938401819004810282018101909252828152606093909290918301828280156105a95780601f1061057e576101008083540402835291602001916105a9565b820191906000526020600020905b81548152906001019060200180831161058c57829003601f168201915b505050505090505b90565b60006105c1338484611217565b5060015b92915050565b6105d361127f565b6105dc816112ad565b50565b60025490565b60008060006105f261132b565b1592506105fd611348565b915061060761136c565b9050909192565b6060610618611006565b905090565b60008061062a8533610f11565b905061064e336001600160a01b03871614806106465750838210155b61019e611390565b61065985858561139e565b336001600160a01b0386161480159061067457506000198114155b15610686576106868533858403611217565b60019150505b9392505050565b61069b61127f565b6106ab600183101561012c611390565b6106bc61138883111561012d611390565b60006106c88242610fab565b90506106dc6201518082101561013d611390565b6000806106e761147e565b915091506106f8811561013e611390565b6000610706866103e8610f72565b90506000838211610735576107306107216201518086610f72565b61072b8488610f72565b6114f2565b61074f565b61074f6107456201518084610f72565b61072b8688610f72565b9050610761600282111561013f611390565b61076d84834289611525565b50505050505050565b60055460ff1690565b60006106186115bf565b61079161127f565b61079961165c565b6105dc81611671565b7f000000000000000000000000000000000000000000000000000000000000000090565b3360008181526001602090815260408083206001600160a01b038716845290915281205490916105c19185906107fc90866116dc565b611217565b61080961127f565b61081161165c565b61081b82826116ee565b5050565b6008546000906106189060c06117ed565b600060606108468651610841610fc5565b6117fa565b61085b898989898989896118076118aa61190b565b97509795505050505050565b60006060610873610ad9565b6001600160a01b031663f94d46686108896107a2565b6040518263ffffffff1660e01b81526004016108a59190614153565b60006040518083038186803b1580156108bd57600080fd5b505afa1580156108d1573d6000803e3d6000fd5b505050506040513d6000823e601f3d908101601f191682016040526108f99190810190613ba9565b50915050600061090761147e565b50905061091b82610916611006565b611a2e565b600061092982846000611a8f565b905061093d6109366105df565b8290611c2b565b935050505090565b600080600061095261147e565b90949093506103e892509050565b6001600160a01b0381166000908152602081905260409020545b919050565b606080886109a961098e610ad9565b6001600160a01b0316336001600160a01b03161460cd611390565b6109be6109b46107a2565b82146101f4611390565b60606109c8611006565b90506109d48882611a2e565b60006060806109e98e8e8e8e8e8e8a8f611807565b9250925092506109f98d84611c7c565b610a0382856118aa565b610a0d81856118aa565b909550935050505b5097509795505050505050565b6001600160a01b031660009081526006602052604090205490565b60007f000000000000000000000000000000000000000000000000000000000000000082604051602001610a729291906140a1565b604051602081830303815290604052805190602001209050919050565b60006060610aa08651610841610fc5565b61085b89898989898989611c86611cdf61190b565b7f000000000000000000000000000000000000000000000000000000000000000090565b7f000000000000000000000000000000000000000000000000000000000000000090565b60048054604080516020601f60026000196101006001881615020190951694909404938401819004810282018101909252828152606093909290918301828280156105a95780601f1061057e576101008083540402835291602001916105a9565b600a54600b549091565b600080610b788560200151611d40565b90506000610b898660400151611d40565b9050600086516001811115610b9a57fe5b1415610c0057610bad8660600151611e46565b6060870152610bbc8583611e67565b9450610bc88482611e67565b9350610bd8866060015183611e67565b60608701526000610bea878787611e73565b9050610bf68183611eb7565b935050505061068c565b610c0a8583611e67565b9450610c168482611e67565b9350610c26866060015182611e67565b60608701526000610c38878787611ec3565b9050610c448184611ef2565b9050610bf681611efe565b600080610c5c3385610f11565b9050808310610c7657610c7133856000611217565b610c83565b610c833385858403611217565b5060019392505050565b60006105c133848461139e565b6000610618611f24565b610cb28442111560d1611390565b6001600160a01b0387166000908152600660209081526040808320549051909291610d09917f0000000000000000000000000000000000000000000000000000000000000000918c918c918c9188918d910161417b565b6040516020818303038152906040528051906020012090506000610d2c82611f9e565b9050600060018288888860405160008152602001604052604051610d53949392919061420b565b6020604051602081039080840390855afa158015610d75573d6000803e3d6000fd5b5050604051601f1901519150610db790506001600160a01b03821615801590610daf57508b6001600160a01b0316826001600160a01b0316145b6101f8611390565b6001600160a01b038b166000908152600660205260409020600185019055610de08b8b8b611217565b5050505050505050505050565b60608088610dfc61098e610ad9565b610e076109b46107a2565b6060610e11611006565b9050610e1b6105df565b610ec15760006060610e308d8d8d868b611fba565b91509150610e45620f424083101560cc611390565b610e536000620f4240612049565b610e628b620f42408403612049565b610e6c8184611cdf565b80610e75610fc5565b6001600160401b0381118015610e8a57600080fd5b50604051908082528060200260200182016040528015610eb4578160200160208202803683370190505b5095509550505050610a15565b610ecb8882611a2e565b6000606080610ee08e8e8e8e8e8e8a8f611c86565b925092509250610ef08c84612049565b610efa8285611cdf565b610f0481856118aa565b9095509350610a15915050565b6001600160a01b03918216600090815260016020908152604080832093909416825291909152205490565b610f4461127f565b600080610f4f61147e565b91509150610f5f81610140611390565b61081b82612053565b8061081b8161208e565b600082820261068c841580610f8f575083858381610f8c57fe5b04145b6003611390565b6001600160401b03811b1992909216911b1790565b6000610fbb838311156001611390565b50900390565b1b90565b7f000000000000000000000000000000000000000000000000000000000000000090565b6110018184108015610ffa57508183105b6064611390565b505050565b60606000611012610fc5565b90506060816001600160401b038111801561102c57600080fd5b50604051908082528060200260200182016040528015611056578160200160208202803683370190505b509050811561108557611067612107565b8160008151811061107457fe5b60200260200101818152505061108e565b91506105b19050565b60018211156110855761109f61212b565b816001815181106110ac57fe5b6020026020010181815250506002821115611085576110c961214f565b816002815181106110d657fe5b6020026020010181815250506003821115611085576110f3612173565b8160038151811061110057fe5b60200260200101818152505060048211156110855761111d612197565b8160048151811061112a57fe5b60200260200101818152505091505090565b60006111488583611a2e565b611169866060015183858151811061115c57fe5b6020026020010151611e67565b6060870152600061117c878787876121bb565b905061119b8184878151811061118e57fe5b6020026020010151611ef2565b90506111a681611efe565b9150505b95945050505050565b60006111c28660600151611e46565b60608701526111d18583611a2e565b6111e5866060015183868151811061115c57fe5b606087015260006111f8878787876121e5565b90506111a68184868151811061120a57fe5b6020026020010151611eb7565b6001600160a01b0380841660008181526001602090815260408083209487168084529490915290819020849055517f8c5be1e5ebec7d5bd14f71427d1e84f3dd0314c0f7b2291e5b200ac8c7c3b92590611272908590614153565b60405180910390a3505050565b60006112966000356001600160e01b031916610a3d565b90506105dc6112a5823361220f565b610191611390565b80156112cd576112c86112be611348565b4210610193611390565b6112e2565b6112e26112d861136c565b42106101a9611390565b6007805460ff19168215151790556040517f9e3a5e37224532dea67b89face185703738a228a6e8a23dee546960180d3be6490611320908390614130565b60405180910390a150565b600061133561136c565b42118061061857505060075460ff161590565b7f000000000000000000000000000000000000000000000000000000000000000090565b7f000000000000000000000000000000000000000000000000000000000000000090565b8161081b5761081b816122ff565b6113b56001600160a01b0384161515610198611390565b6113cc6001600160a01b0383161515610199611390565b6113d7838383611001565b6001600160a01b0383166000908152602081905260409020546113fd90826101a0612352565b6001600160a01b03808516600090815260208190526040808220939093559084168152205461142c90826116dc565b6001600160a01b0380841660008181526020819052604090819020939093559151908516907fddf252ad1be2c89b69c2b068fc378daa952ba7f163c4a11628f55a4df523b3ef90611272908590614153565b60008060008060008061148f612368565b9350935093509350804210156114e25760019450838311156114c65781810382420385850302816114bc57fe5b04840195506114dd565b81810382420384860302816114d757fe5b04840395505b6114ea565b600094508295505b505050509091565b60006115018215156004611390565b8261150e575060006105c5565b81600184038161151a57fe5b0460010190506105c5565b611539816001600160401b031660c0610fc1565b61154d836001600160401b03166080610fc1565b611561856001600160401b03166040610fc1565b611575876001600160401b03166000610fc1565b1717176009556040517f1835882ee7a34ac194f717a35e09bb1d24c82a3b9d854ab6c9749525b714cdf2906115b1908690869086908690614279565b60405180910390a150505050565b60007f00000000000000000000000000000000000000000000000000000000000000007f00000000000000000000000000000000000000000000000000000000000000007f000000000000000000000000000000000000000000000000000000000000000061162c6123bf565b306040516020016116419594939291906141af565b60405160208183030381529060405280519060200120905090565b61166f61166761132b565b610192611390565b565b61168464e8d4a5100082101560cb611390565b61169a67016345785d8a000082111560ca611390565b6008546116a9908260c0610f96565b6008556040517fa9ba3ffe0b6c366b81232caab38605a0699ad5398d6cce76f91ee809e322dafc90611320908390614153565b600082820161068c8482101583611390565b60006116f86107a2565b90506000611704610ad9565b6001600160a01b031663b05f8e4883866040518363ffffffff1660e01b81526004016117319291906141f4565b60806040518083038186803b15801561174957600080fd5b505afa15801561175d573d6000803e3d6000fd5b505050506040513d601f19601f820116820180604052508101906117819190613fdc565b604051630639cdb560e21b81529094506001600160a01b03851693506318e736d492506117b59150859087906004016141db565b600060405180830381600087803b1580156117cf57600080fd5b505af11580156117e3573d6000803e3d6000fd5b5050505050505050565b1c6001600160401b031690565b61081b8183146067611390565b600060608061181461132b565b156118375761182388876123c3565b90506118328882610fab6124af565b611882565b61183f610fc5565b6001600160401b038111801561185457600080fd5b5060405190808252806020026020018201604052801561187e578160200160208202803683370190505b5090505b61188d88868661251a565b909350915061189c8883612586565b985098509895505050505050565b60005b6118b5610fc5565b811015611001576118ec8382815181106118cb57fe5b60200260200101518383815181106118df57fe5b6020026020010151611c2b565b8382815181106118f857fe5b60209081029190910101526001016118ad565b3330146119c9576000306001600160a01b031660003660405161192f9291906140b9565b6000604051808303816000865af19150503d806000811461196c576040519150601f19603f3d011682016040523d82523d6000602084013e611971565b606091505b50509050806000811461198057fe5b60046000803e6000516001600160e01b0319166343adbafb60e01b81146119ab573d6000803e3d6000fd5b506020600460003e604060205260243d03602460403e601c3d016000f35b60606119d3611006565b90506119df8782611a2e565b600060606119f78c8c8c8c8c8c898d8d63ffffffff16565b5091509150611a0a81848663ffffffff16565b8051601f1982018390526343adbafb603f1983015260200260231982016044820181fd5b60005b611a39610fc5565b81101561100157611a70838281518110611a4f57fe5b6020026020010151838381518110611a6357fe5b60200260200101516125b5565b838281518110611a7c57fe5b6020908102919091010152600101611a31565b81516000908190815b81811015611ad057611ac6868281518110611aaf57fe5b6020026020010151846116dc90919063ffffffff16565b9250600101611a98565b5081611ae15760009250505061068c565b600082878302825b60ff811015611c13576000858a600081518110611b0257fe5b60200260200101510290506000600190505b86811015611b5657611b4c611b45611b3f848e8581518110611b3257fe5b6020026020010151610f72565b89610f72565b868c6125e1565b9150600101611b14565b50839450611bc9611b98611b7f611b76611b70878c610f72565b85610f72565b6103e88d6125e1565b611b92611b8c8a89610f72565b88610f72565b906116dc565b611bc3611bb6611bac6103e8880386610f72565b6103e88e156125e1565b611b928a60010189610f72565b8b6125e1565b935084841115611bf157600185850311611bec578397505050505050505061068c565b611c0a565b600184860311611c0a578397505050505050505061068c565b50600101611ae9565b50611c1f6101426122ff565b50505050509392505050565b6000611c3a8215156004611390565b82611c47575060006105c5565b670de0b6b3a764000083810290611c6a90858381611c6157fe5b04146005611390565b828181611c7357fe5b049150506105c5565b61081b8282612601565b6000606080611c9361165c565b6060611c9f89886123c3565b9050611cae8982610fab6124af565b60006060611cbd8b89896126bd565b91509150611ccb8b82612716565b909d909c50909a5098505050505050505050565b60005b611cea610fc5565b81101561100157611d21838281518110611d0057fe5b6020026020010151838381518110611d1457fe5b6020026020010151612723565b838281518110611d2d57fe5b6020908102919091010152600101611ce2565b6000611d4b82612771565b15611d5f57611d58612107565b905061097a565b611d68826127a3565b15611d7557611d5861212b565b7f00000000000000000000000000000000000000000000000000000000000000006001600160a01b0316826001600160a01b03161415611db757611d5861214f565b7f00000000000000000000000000000000000000000000000000000000000000006001600160a01b0316826001600160a01b03161415611df957611d58612173565b7f00000000000000000000000000000000000000000000000000000000000000006001600160a01b0316826001600160a01b03161415611e3b57611d58612197565b61097a6101356122ff565b600080611e5b611e5461081f565b84906127d5565b905061068c8382610fab565b600061068c83836125b5565b6000611e8a611e80610fc5565b60021460d2611390565b6060600080611e9a878787612811565b925092509250611eac878484846121e5565b979650505050505050565b600061068c8383611c2b565b6000611ed0611e80610fc5565b6060600080611ee0878787612811565b925092509250611eac878484846121bb565b600061068c8383612723565b60006105c5611f1d611f0e61081f565b670de0b6b3a764000090610fab565b8390612723565b6000611f2e610ad9565b6001600160a01b031663aaabadc56040518163ffffffff1660e01b815260040160206040518083038186803b158015611f6657600080fd5b505afa158015611f7a573d6000803e3d6000fd5b505050506040513d601f19601f820116820180604052508101906106189190613d76565b6000611fa86115bf565b82604051602001610a729291906140c9565b60006060611fc661165c565b6000611fd1846128d2565b9050611fec6000826002811115611fe457fe5b1460ce611390565b6060611ff7856128e8565b90506120068151610841610fc5565b6120108187611a2e565b600061201a61147e565b509050600061202b82846001611a8f565b90508061203881846128fe565b9b929a509198505050505050505050565b61081b8282612909565b61205f81824242611525565b7fa0d01593e47e69d07e0ccd87bece09411e07dd1ed40ca8f2e7af2976542a0233816040516113209190614153565b60028151101561209d576105dc565b6000816000815181106120ac57fe5b602002602001015190506000600190505b82518110156110015760008382815181106120d457fe5b602002602001015190506120fd816001600160a01b0316846001600160a01b0316106065611390565b91506001016120bd565b7f000000000000000000000000000000000000000000000000000000000000000090565b7f000000000000000000000000000000000000000000000000000000000000000090565b7f000000000000000000000000000000000000000000000000000000000000000090565b7f000000000000000000000000000000000000000000000000000000000000000090565b7f000000000000000000000000000000000000000000000000000000000000000090565b60006121c561165c565b60006121cf61147e565b5090506000611eac828787878b60600151612997565b60006121ef61165c565b60006121f961147e565b5090506000611eac828787878b60600151612a5b565b600073ba1ba1ba1ba1ba1ba1ba1ba1ba1ba1ba1ba1ba1b61222e610ab5565b6001600160a01b031614158015612249575061224983612b03565b1561227157612256610ab5565b6001600160a01b0316336001600160a01b03161490506105c5565b612279611f24565b6001600160a01b0316639be2a8848484306040518463ffffffff1660e01b81526004016122a89392919061415c565b60206040518083038186803b1580156122c057600080fd5b505afa1580156122d4573d6000803e3d6000fd5b505050506040513d601f19601f820116820180604052508101906122f89190613c90565b90506105c5565b62461bcd60e51b6000908152602060045260076024526642414c23000030600a808404818106603090810160081b95839006959095019082900491820690940160101b939093010160c81b604452606490fd5b60006123618484111583611390565b5050900390565b60008060008061238460006009546117ed90919063ffffffff16565b6009549094506123959060406117ed565b6009549093506123a69060806117ed565b6009549092506123b79060c06117ed565b905090919293565b4690565b6060806123ce610fc5565b6001600160401b03811180156123e357600080fd5b5060405190808252806020026020018201604052801561240d578160200160208202803683370190505b5090508261241c5790506105c5565b6000808560008151811061242c57fe5b602002602001015190506000600190505b612445610fc5565b81101561247c57600087828151811061245a57fe5b6020026020010151905082811115612473578193508092505b5060010161243d565b5061248e600b5487600a548589612b3f565b83838151811061249a57fe5b60209081029190910101525090949350505050565b60005b6124ba610fc5565b811015612514576124f58482815181106124d057fe5b60200260200101518483815181106124e457fe5b60200260200101518463ffffffff16565b84828151811061250157fe5b60209081029190910101526001016124b2565b50505050565b600060606000612529846128d2565b9050600081600281111561253957fe5b1415612553576125498685612bb3565b925092505061257e565b600181600281111561256157fe5b1415612571576125498685612c7d565b612549868686612caf565b505b935093915050565b6125938282610fab6124af565b600061259d61147e565b5090506110016125af82856001611a8f565b826128fe565b60008282026125cf841580610f8f575083858381610f8c57fe5b670de0b6b3a764000090049392505050565b6000816125f7576125f28484612d2b565b610515565b61051584846114f2565b6126186001600160a01b038316151561019b611390565b61262482600083611001565b6001600160a01b03821660009081526020819052604090205461264a90826101a1612352565b6001600160a01b0383166000908152602081905260409020556002546126709082612d4b565b6002556040516000906001600160a01b038416907fddf252ad1be2c89b69c2b068fc378daa952ba7f163c4a11628f55a4df523b3ef906126b1908590614153565b60405180910390a35050565b6000606060006126cc846128d2565b905060018160028111156126dc57fe5b14156126ed57612549868686612d59565b60028160028111156126fb57fe5b141561270b576125498685612dc3565b61257c6101366122ff565b61259382826116dc6124af565b60006127328215156004611390565b8261273f575060006105c5565b670de0b6b3a76400008381029061275990858381611c6157fe5b82600182038161276557fe5b046001019150506105c5565b7f00000000000000000000000000000000000000000000000000000000000000006001600160a01b0390811691161490565b7f00000000000000000000000000000000000000000000000000000000000000006001600160a01b0390811691161490565b60008282026127ef841580610f8f575083858381610f8c57fe5b806127fe5760009150506105c5565b670de0b6b3a76400006000198201612765565b604080516002808252606082810190935260009182918160200160208202803683370190505092506128468660200151612771565b1561288c576000915060019050848360008151811061286157fe5b602002602001018181525050838360018151811061287b57fe5b6020026020010181815250506128c9565b600090506001915083836000815181106128a257fe5b60200260200101818152505084836001815181106128bc57fe5b6020026020010181815250505b93509350939050565b6000818060200190518101906105c59190613ddf565b60608180602001905181019061068c9190613ea4565b600a91909155600b55565b61291560008383611001565b60025461292290826116dc565b6002556001600160a01b03821660009081526020819052604090205461294890826116dc565b6001600160a01b0383166000818152602081905260408082209390935591519091907fddf252ad1be2c89b69c2b068fc378daa952ba7f163c4a11628f55a4df523b3ef906126b1908590614153565b6000806129a687876001611a8f565b90506129ce838786815181106129b857fe5b6020026020010151610fab90919063ffffffff16565b8685815181106129da57fe5b60200260200101818152505060006129f488888489612e57565b905083878681518110612a0357fe5b602002602001015101878681518110612a1857fe5b602002602001018181525050612a4f6001611b92898981518110612a3857fe5b602002602001015184610fab90919063ffffffff16565b98975050505050505050565b600080612a6a87876001611a8f565b9050612a9283878781518110612a7c57fe5b60200260200101516116dc90919063ffffffff16565b868681518110612a9e57fe5b6020026020010181815250506000612ab888888488612e57565b905083878781518110612ac757fe5b602002602001015103878781518110612adc57fe5b602002602001018181525050612a4f6001612afd838a89815181106129b857fe5b90610fab565b6000612b15632f1a0bc960e01b610a3d565b821480612b305750612b2d637587926b60e11b610a3d565b82145b806105c557506105c582613007565b600080612b4e87878787612e57565b905080868581518110612b5d57fe5b602002602001015111612b745760009150506111aa565b600081878681518110612b8357fe5b6020026020010151039050612a4f670de0b6b3a7640000612bad86846125b590919063ffffffff16565b90611c2b565b60006060612bbf61165c565b600080612bcb85613039565b91509150612be3612bda610fc5565b82106064611390565b6060612bed610fc5565b6001600160401b0381118015612c0257600080fd5b50604051908082528060200260200182016040528015612c2c578160200160208202803683370190505b5090506000612c3961147e565b509050612c5881898587612c4b6105df565b612c5361081f565b61305b565b828481518110612c6457fe5b6020908102919091010152509196919550909350505050565b600060606000612c8c84613177565b90506060612ca28683612c9d6105df565b61318d565b9196919550909350505050565b60006060612cbb61165c565b60606000612cc88561323e565b91509150612cd98251610841610fc5565b612ce38287611a2e565b6000612ced61147e565b5090506000612d0d828a86612d006105df565b612d0861081f565b613256565b9050612d1d8382111560cf611390565b989297509195505050505050565b6000612d3a8215156004611390565b818381612d4357fe5b049392505050565b600061068c83836001612352565b60006060806000612d698561323e565b91509150612d7f612d78610fc5565b83516117fa565b612d898287611a2e565b6000612d9361147e565b5090506000612db3828a86612da66105df565b612dae61081f565b6134ea565b9050612d1d8382101560d0611390565b60006060600080612dd385613039565b91509150612de2612bda610fc5565b6060612dec610fc5565b6001600160401b0381118015612e0157600080fd5b50604051908082528060200260200182016040528015612e2b578160200160208202803683370190505b5090506000612e3861147e565b509050612c5881898587612e4a6105df565b612e5261081f565b613760565b600080845186029050600085600081518110612e6f57fe5b602002602001015190506000865187600081518110612e8a57fe5b60200260200101510290506000600190505b8751811015612ee357612ec8612ec2612ebb848b8581518110611b3257fe5b8a51610f72565b88612d2b565b9150612ed9888281518110611aaf57fe5b9250600101612e9c565b50868581518110612ef057fe5b6020026020010151820391506000612f088788610f72565b90506000612f34612f28612f208461072b8988610f72565b6103e8610f72565b8a8981518110611b3257fe5b90506000612f4f612f48612f208b89612d2b565b86906116dc565b9050600080612f6b612f6186866116dc565b61072b8d866116dc565b905060005b60ff811015612feb57819250612fa0612f8d86611b928586610f72565b61072b8e612afd88611b92886002610f72565b915082821115612fc957600183830311612fc4575097506105159650505050505050565b612fe3565b600182840311612fe3575097506105159650505050505050565b600101612f70565b50612ff76101426122ff565b5050505050505050949350505050565b6000613019631c74c91760e11b610a3d565b8214806105c557506130316350dd6ed960e01b610a3d565b909114919050565b600080828060200190518101906130509190613e6e565b909590945092505050565b60008061306a88886001611a8f565b9050600061308c8261308687613080818b610fab565b90612723565b906127d5565b9050600061309c8a8a848b612e57565b905060006130b0828b8b815181106129b857fe5b90506000805b8b518110156130ef576130e58c82815181106130ce57fe5b6020026020010151836116dc90919063ffffffff16565b91506001016130b6565b506000613118828d8d8151811061310257fe5b6020026020010151611c2b90919063ffffffff16565b905060006131258261383d565b9050600061313385836127d5565b905060006131418683610fab565b905061316261315b83670de0b6b3a76400008e90036125b5565b82906116dc565b99505050505050505050509695505050505050565b60008180602001905181019061068c9190613e41565b6060600061319b8484611c2b565b9050606085516001600160401b03811180156131b657600080fd5b506040519080825280602002602001820160405280156131e0578160200160208202803683370190505b50905060005b865181101561323457613215838883815181106131ff57fe5b60200260200101516125b590919063ffffffff16565b82828151811061322157fe5b60209081029190910101526001016131e6565b5095945050505050565b60606000828060200190518101906130509190613dfb565b600080805b865181101561327d576132738782815181106130ce57fe5b915060010161325b565b50606085516001600160401b038111801561329757600080fd5b506040519080825280602002602001820160405280156132c1578160200160208202803683370190505b5090506000805b88518110156133885760006132f9858b84815181106132e357fe5b602002602001015161272390919063ffffffff16565b90506133358a838151811061330a57fe5b60200260200101516130808b858151811061332157fe5b60200260200101518d86815181106129b857fe5b84838151811061334157fe5b60200260200101818152505061337d6133768286858151811061336057fe5b60200260200101516127d590919063ffffffff16565b84906116dc565b9250506001016132c8565b50606088516001600160401b03811180156133a257600080fd5b506040519080825280602002602001820160405280156133cc578160200160208202803683370190505b50905060005b89518110156134975760008482815181106133e957fe5b60200260200101518411156134505760006134126134068661383d565b8d85815181106131ff57fe5b90506000613426828d86815181106129b857fe5b905061344761344082670de0b6b3a76400008d9003612723565b83906116dc565b92505050613467565b89828151811061345c57fe5b602002602001015190505b613477818c84815181106129b857fe5b83838151811061348357fe5b6020908102919091010152506001016133d2565b5060006134a68b8b6001611a8f565b905060006134b68c846000611a8f565b905060006134c48284611c2b565b90506134d96134d28261383d565b8b906127d5565b9d9c50505050505050505050505050565b600080805b8651811015613511576135078782815181106130ce57fe5b91506001016134ef565b50606085516001600160401b038111801561352b57600080fd5b50604051908082528060200260200182016040528015613555578160200160208202803683370190505b5090506000805b88518110156135e9576000613577858b848151811061310257fe5b90506135b38a838151811061358857fe5b6020026020010151612bad8b858151811061359f57fe5b60200260200101518d8681518110612a7c57fe5b8483815181106135bf57fe5b6020026020010181815250506135de613376828685815181106131ff57fe5b92505060010161355c565b50606088516001600160401b038111801561360357600080fd5b5060405190808252806020026020018201604052801561362d578160200160208202803683370190505b50905060005b89518110156136ee5760008385838151811061364b57fe5b602002602001015111156136a757600061367061340686670de0b6b3a7640000610fab565b90506000613684828d86815181106129b857fe5b905061369e61344082670de0b6b3a76400008d90036125b5565b925050506136be565b8982815181106136b357fe5b602002602001015190505b6136ce818c8481518110612a7c57fe5b8383815181106136da57fe5b602090810291909101015250600101613633565b5060006136fd8b8b6001611a8f565b9050600061370d8c846000611a8f565b9050600061371b8284611c2b565b9050670de0b6b3a7640000811115613750576137428a670de0b6b3a763ffff1983016125b5565b9750505050505050506111aa565b60009750505050505050506111aa565b60008061376f88886001611a8f565b905060006137858261308687613080818b6116dc565b905060006137958a8a848b612e57565b905060006137bf8a8a815181106137a857fe5b602002602001015183610fab90919063ffffffff16565b90506000805b8b518110156137e7576137dd8c82815181106130ce57fe5b91506001016137c5565b5060006137fa828d8d8151811061310257fe5b905060006138078261383d565b9050600061381585836127d5565b905060006138238683610fab565b905061316261315b83670de0b6b3a76400008e9003612723565b6000670de0b6b3a764000082106138555760006105c5565b50670de0b6b3a76400000390565b80356105c5816142e7565b600082601f83011261387e578081fd5b813561389161388c826142c8565b6142a2565b8181529150602080830190848101818402860182018710156138b257600080fd5b60005b848110156138d1578135845292820192908201906001016138b5565b505050505092915050565b600082601f8301126138ec578081fd5b81516138fa61388c826142c8565b81815291506020808301908481018184028601820187101561391b57600080fd5b60005b848110156138d15781518452928201929082019060010161391e565b600082601f83011261394a578081fd5b81356001600160401b0381111561395f578182fd5b613972601f8201601f19166020016142a2565b915080825283602082850101111561398957600080fd5b8060208401602084013760009082016020015292915050565b8035600281106105c557600080fd5b60006101208083850312156139c4578182fd5b6139cd816142a2565b9150506139da83836139a2565b81526139e98360208401613863565b60208201526139fb8360408401613863565b6040820152606082013560608201526080820135608082015260a082013560a0820152613a2b8360c08401613863565b60c0820152613a3d8360e08401613863565b60e0820152610100808301356001600160401b03811115613a5d57600080fd5b613a698582860161393a565b82840152505092915050565b600060208284031215613a86578081fd5b813561068c816142e7565b60008060408385031215613aa3578081fd5b8235613aae816142e7565b91506020830135613abe816142e7565b809150509250929050565b600080600060608486031215613add578081fd5b8335613ae8816142e7565b92506020840135613af8816142e7565b929592945050506040919091013590565b600080600080600080600060e0888a031215613b23578283fd5b8735613b2e816142e7565b96506020880135613b3e816142e7565b95506040880135945060608801359350608088013560ff81168114613b61578384fd5b9699959850939692959460a0840135945060c09093013592915050565b60008060408385031215613b90578182fd5b8235613b9b816142e7565b946020939093013593505050565b600080600060608486031215613bbd578081fd5b83516001600160401b0380821115613bd3578283fd5b818601915086601f830112613be6578283fd5b8151613bf461388c826142c8565b80828252602080830192508086018b828387028901011115613c14578788fd5b8796505b84871015613c3f578051613c2b816142e7565b845260019690960195928101928101613c18565b508901519097509350505080821115613c56578283fd5b50613c63868287016138dc565b925050604084015190509250925092565b600060208284031215613c85578081fd5b813561068c816142fc565b600060208284031215613ca1578081fd5b815161068c816142fc565b600080600080600080600060e0888a031215613cc6578081fd5b873596506020880135613cd8816142e7565b95506040880135613ce8816142e7565b945060608801356001600160401b0380821115613d03578283fd5b613d0f8b838c0161386e565b955060808a0135945060a08a0135935060c08a0135915080821115613d32578283fd5b50613d3f8a828b0161393a565b91505092959891949750929550565b600060208284031215613d5f578081fd5b81356001600160e01b03198116811461068c578182fd5b600060208284031215613d87578081fd5b815161068c816142e7565b60008060408385031215613da4578182fd5b8235613daf816142e7565b915060208301356001600160401b03811115613dc9578182fd5b613dd58582860161393a565b9150509250929050565b600060208284031215613df0578081fd5b815161068c8161430a565b600080600060608486031215613e0f578081fd5b8351613e1a8161430a565b60208501519093506001600160401b03811115613e35578182fd5b613c63868287016138dc565b60008060408385031215613e53578182fd5b8251613e5e8161430a565b6020939093015192949293505050565b600080600060608486031215613e82578081fd5b8351613e8d8161430a565b602085015160409095015190969495509392505050565b60008060408385031215613eb6578182fd5b8251613ec18161430a565b60208401519092506001600160401b03811115613edc578182fd5b613dd5858286016138dc565b60008060008060808587031215613efd578182fd5b84356001600160401b0380821115613f13578384fd5b613f1f888389016139b1565b95506020870135915080821115613f34578384fd5b50613f418782880161386e565b949794965050505060408301359260600135919050565b600080600060608486031215613f6c578081fd5b83356001600160401b03811115613f81578182fd5b613f8d868287016139b1565b9660208601359650604090950135949350505050565b600060208284031215613fb4578081fd5b5035919050565b60008060408385031215613fcd578182fd5b50508035926020909101359150565b60008060008060808587031215613ff1578182fd5b8451935060208501519250604085015191506060850151614011816142e7565b939692955090935050565b6000815180845260208085019450808401835b8381101561404b5781518752958201959082019060010161402f565b509495945050505050565b60008151808452815b8181101561407b5760208185018101518683018201520161405f565b8181111561408c5782602083870101525b50601f01601f19169290920160200192915050565b9182526001600160e01b031916602082015260240190565b6000828483379101908152919050565b61190160f01b81526002810192909252602282015260420190565b6001600160a01b0391909116815260200190565b60006020825261068c602083018461401c565b60006040825261411e604083018561401c565b82810360208401526111aa818561401c565b901515815260200190565b92151583526020830191909152604082015260600190565b90815260200190565b9283526001600160a01b03918216602084015216604082015260600190565b9586526001600160a01b0394851660208701529290931660408501526060840152608083019190915260a082015260c00190565b9485526020850193909352604084019190915260608301526001600160a01b0316608082015260a00190565b6000838252604060208301526105156040830184614056565b9182526001600160a01b0316602082015260400190565b93845260ff9290921660208401526040830152606082015260800190565b60006020825261068c6020830184614056565b600083825260406020830152610515604083018461401c565b9283529015156020830152604082015260600190565b918252602082015260400190565b93845260208401929092526040830152606082015260800190565b60ff91909116815260200190565b6040518181016001600160401b03811182821017156142c057600080fd5b604052919050565b60006001600160401b038211156142dd578081fd5b5060209081020190565b6001600160a01b03811681146105dc57600080fd5b80151581146105dc57600080fd5b600381106105dc57600080fdfea26469706673582212207e6e29cbe832c3c249c11119b72fd649ed3beec4736f62713e3aa92a8cd112dc64736f6c63430007010033a26469706673582212202c6b80523afeb4a208ecb1d1c393326ad64b6c7976886f1ab7a5c9b69abb023364736f6c63430007010033"
}